{"contracts/mock/X2EarnAppsMock.sol":{"X2EarnAppsMock":{"abi":[{"inputs":[],"stateMutability":"nonpayable","type":"constructor"},{"inputs":[{"internalType":"bytes32","name":"appId","type":"bytes32"}],"name":"X2EarnAppAlreadyExists","type":"error"},{"inputs":[{"internalType":"address","name":"addr","type":"address"}],"name":"X2EarnInvalidAddress","type":"error"},{"inputs":[{"internalType":"bytes32","name":"appId","type":"bytes32"}],"name":"X2EarnMaxRewardDistributorsReached","type":"error"},{"inputs":[{"internalType":"bytes32","name":"appId","type":"bytes32"}],"name":"X2EarnNonexistentApp","type":"error"},{"inputs":[{"internalType":"bytes32","name":"appId","type":"bytes32"},{"internalType":"address","name":"distributorAddress","type":"address"}],"name":"X2EarnNonexistentRewardDistributor","type":"error"},{"inputs":[{"internalType":"address","name":"user","type":"address"}],"name":"X2EarnUnauthorizedUser","type":"error"},{"anonymous":false,"inputs":[{"indexed":true,"internalType":"bytes32","name":"id","type":"bytes32"},{"indexed":false,"internalType":"address","name":"addr","type":"address"},{"indexed":false,"internalType":"string","name":"name","type":"string"},{"indexed":false,"internalType":"bool","name":"appAvailableForAllocationVoting","type":"bool"}],"name":"AppAdded","type":"event"},{"anonymous":false,"inputs":[{"indexed":true,"internalType":"bytes32","name":"appId","type":"bytes32"},{"indexed":false,"internalType":"address","name":"oldAdmin","type":"address"},{"indexed":false,"internalType":"address","name":"newAdmin","type":"address"}],"name":"AppAdminUpdated","type":"event"},{"anonymous":false,"inputs":[{"indexed":true,"internalType":"bytes32","name":"appId","type":"bytes32"},{"indexed":false,"internalType":"address","name":"distributorAddress","type":"address"}],"name":"RewardDistributorAddedToApp","type":"event"},{"anonymous":false,"inputs":[{"indexed":true,"internalType":"bytes32","name":"appId","type":"bytes32"},{"indexed":false,"internalType":"address","name":"distributorAddress","type":"address"}],"name":"RewardDistributorRemovedFromApp","type":"event"},{"anonymous":false,"inputs":[{"indexed":true,"internalType":"bytes32","name":"appId","type":"bytes32"},{"indexed":false,"internalType":"address","name":"oldTeamWalletAddress","type":"address"},{"indexed":false,"internalType":"address","name":"newTeamWalletAddress","type":"address"}],"name":"TeamWalletAddressUpdated","type":"event"},{"inputs":[],"name":"MAX_MODERATORS","outputs":[{"internalType":"uint256","name":"","type":"uint256"}],"stateMutability":"view","type":"function"},{"inputs":[],"name":"MAX_REWARD_DISTRIBUTORS","outputs":[{"internalType":"uint256","name":"","type":"uint256"}],"stateMutability":"view","type":"function"},{"inputs":[{"internalType":"address","name":"_teamWalletAddress","type":"address"},{"internalType":"address","name":"_admin","type":"address"},{"internalType":"string","name":"_appName","type":"string"}],"name":"addApp","outputs":[],"stateMutability":"nonpayable","type":"function"},{"inputs":[{"internalType":"bytes32","name":"_appId","type":"bytes32"},{"internalType":"address","name":"_distributor","type":"address"}],"name":"addRewardDistributor","outputs":[],"stateMutability":"nonpayable","type":"function"},{"inputs":[{"internalType":"bytes32","name":"appId","type":"bytes32"}],"name":"appExists","outputs":[{"internalType":"bool","name":"","type":"bool"}],"stateMutability":"view","type":"function"},{"inputs":[{"internalType":"string","name":"appName","type":"string"}],"name":"hashAppName","outputs":[{"internalType":"bytes32","name":"","type":"bytes32"}],"stateMutability":"pure","type":"function"},{"inputs":[{"internalType":"bytes32","name":"appId","type":"bytes32"},{"internalType":"address","name":"account","type":"address"}],"name":"isAppAdmin","outputs":[{"internalType":"bool","name":"","type":"bool"}],"stateMutability":"view","type":"function"},{"inputs":[{"internalType":"bytes32","name":"appId","type":"bytes32"},{"internalType":"address","name":"account","type":"address"}],"name":"isRewardDistributor","outputs":[{"internalType":"bool","name":"","type":"bool"}],"stateMutability":"view","type":"function"},{"inputs":[{"internalType":"bytes32","name":"_appId","type":"bytes32"},{"internalType":"address","name":"_distributor","type":"address"}],"name":"removeRewardDistributor","outputs":[],"stateMutability":"nonpayable","type":"function"},{"inputs":[{"internalType":"bytes32","name":"_appId","type":"bytes32"},{"internalType":"address","name":"_newAdmin","type":"address"}],"name":"setAppAdmin","outputs":[],"stateMutability":"nonpayable","type":"function"},{"inputs":[{"internalType":"bytes32","name":"appId","type":"bytes32"}],"name":"teamWalletAddress","outputs":[{"internalType":"address","name":"","type":"address"}],"stateMutability":"view","type":"function"}],"evm":{"bytecode":{"linkReferences":{},"object":"608060405234801561001057600080fd5b50610f09806100206000396000f3fe608060405234801561001057600080fd5b50600436106100a95760003560e01c80636a0ae325116100715780636a0ae32514610113578063833d29b41461017457806383802165146101875780638e3a29dc1461019a578063a06bb129146101ad578063b58a7547146101c057600080fd5b80631772503b146100ae578063228cf42f1461011357806334b0e6b314610129578063607bfb241461013c578063652c97aa1461015f575b600080fd5b6100f66100bc366004610ad4565b60009081527f5830f0e95c01712d916c34d9e2fa42e9f749b325b67bce7382d70bb99c62350360205260409020546001600160a01b031690565b6040516001600160a01b0390911681526020015b60405180910390f35b61011b606481565b60405190815260200161010a565b61011b610137366004610b90565b6101d3565b61014f61014a366004610ad4565b610203565b604051901515815260200161010a565b61017261016d366004610be9565b610239565b005b610172610182366004610c47565b610249565b610172610195366004610c47565b610282565b61014f6101a8366004610c47565b6102b6565b6101726101bb366004610c47565b6102e7565b61014f6101ce366004610c47565b61031b565b6000816040516020016101e69190610c97565b604051602081830303815290604052805190602001209050919050565b60009081527fb6909058bd527140b8d55a44344c5e42f1f148f1b3b16df7641882df8dd729006020526040902060020154151590565b610244838383610419565b505050565b8161025481336102b6565b610278576040516363a704cf60e11b81523360048201526024015b60405180910390fd5b6102448383610592565b8161028d81336102b6565b6102ac576040516363a704cf60e11b815233600482015260240161026f565b6102448383610684565b6000828152600080516020610eb483398151915260205260409020546001600160a01b038281169116145b92915050565b816102f281336102b6565b610311576040516363a704cf60e11b815233600482015260240161026f565b61024483836107b8565b60008281527f5830f0e95c01712d916c34d9e2fa42e9f749b325b67bce7382d70bb99c623502602090815260408083208054825181850281018501909352808352600080516020610eb48339815191529385939291908301828280156103aa57602002820191906000526020600020905b81546001600160a01b0316815260019091019060200180831161038c575b5050505050905060005b815181101561040d57846001600160a01b03168282815181106103d9576103d9610cb3565b60200260200101516001600160a01b0316036103fb57600193505050506102e1565b8061040581610cdf565b9150506103b4565b50600095945050505050565b6001600160a01b03831661044b57604051630ea81b3f60e21b81526001600160a01b038416600482015260240161026f565b6001600160a01b03821661047d57604051630ea81b3f60e21b81526001600160a01b038316600482015260240161026f565b7fb6909058bd527140b8d55a44344c5e42f1f148f1b3b16df7641882df8dd7290060006104a9836101d3565b90506104b481610203565b156104d557604051636b4fdeb360e01b81526004810182905260240161026f565b604080516060810182528281526020808201868152428385015260008581529186905292902081518155915190919060018201906105139082610d80565b5060409190910151600290910155600180830180549182018155600090815260209020018190556105448185610592565b61054e81866109d8565b807f181c8615e49dc4eaed218e1d225e4a34a0fb364fc70601a191573daa19d57eda8685600160405161058393929190610e40565b60405180910390a25050505050565b61059b82610203565b6105bb5760405163018f58af60e31b81526004810183905260240161026f565b6001600160a01b0381166105ed57604051630ea81b3f60e21b81526001600160a01b038216600482015260240161026f565b6000600080516020610eb4833981519152600084815260208281526040918290205482516001600160a01b0391821681529086169181019190915291925084917ff731532cb185ec0e4f09f397cce651bf601970ff3c051d753e42a427448c3d20910160405180910390a26000928352602052604090912080546001600160a01b0319166001600160a01b03909216919091179055565b6001600160a01b0381166106b657604051630ea81b3f60e21b81526001600160a01b038216600482015260240161026f565b6106bf82610203565b6106df5760405163018f58af60e31b81526004810183905260240161026f565b60008281527f5830f0e95c01712d916c34d9e2fa42e9f749b325b67bce7382d70bb99c6235026020526040902054600080516020610eb48339815191529060641161074057604051633be3601b60e01b81526004810184905260240161026f565b6000838152600282016020908152604080832080546001810182559084529282902090920180546001600160a01b0319166001600160a01b038616908117909155915191825284917fff61d9fea8a697c08f6ce345a762521d2e5fd7cce8e235fb4bf9337ba0c57c29910160405180910390a2505050565b6001600160a01b0381166107ea57604051630ea81b3f60e21b81526001600160a01b038216600482015260240161026f565b6107f382610203565b6108135760405163018f58af60e31b81526004810183905260240161026f565b61081d828261031b565b61084c57604051635f65958f60e11b8152600481018390526001600160a01b038216602482015260440161026f565b60008281527f5830f0e95c01712d916c34d9e2fa42e9f749b325b67bce7382d70bb99c62350260205260408120600080516020610eb4833981519152915b81548110156109d157836001600160a01b03168282815481106108af576108af610cb3565b6000918252602090912001546001600160a01b0316036109bf57815482906108d990600190610e8a565b815481106108e9576108e9610cb3565b9060005260206000200160009054906101000a90046001600160a01b031682828154811061091957610919610cb3565b9060005260206000200160006101000a8154816001600160a01b0302191690836001600160a01b031602179055508180548061095757610957610e9d565b6000828152602090819020600019908301810180546001600160a01b03191690559091019091556040516001600160a01b038616815286917f5d49a79e91765aff88a22b5e1ac2373c3035e839101aca1496177c0709e53b5a910160405180910390a26109d1565b806109c981610cdf565b91505061088a565b5050505050565b6001600160a01b038116610a0a57604051630ea81b3f60e21b81526001600160a01b038216600482015260240161026f565b610a1382610203565b610a335760405163018f58af60e31b81526004810183905260240161026f565b60008281527f5830f0e95c01712d916c34d9e2fa42e9f749b325b67bce7382d70bb99c623503602090815260409182902080546001600160a01b038581166001600160a01b03198316811790935584519116808252928101919091528251600080516020610eb48339815191529386927f9402e8cef9f513d1d61b2df14b6521dfc70cfe4f750d10e413ef6f618b4be4f6929081900390910190a250505050565b600060208284031215610ae657600080fd5b5035919050565b634e487b7160e01b600052604160045260246000fd5b600082601f830112610b1457600080fd5b813567ffffffffffffffff80821115610b2f57610b2f610aed565b604051601f8301601f19908116603f01168101908282118183101715610b5757610b57610aed565b81604052838152866020858801011115610b7057600080fd5b836020870160208301376000602085830101528094505050505092915050565b600060208284031215610ba257600080fd5b813567ffffffffffffffff811115610bb957600080fd5b610bc584828501610b03565b949350505050565b80356001600160a01b0381168114610be457600080fd5b919050565b600080600060608486031215610bfe57600080fd5b610c0784610bcd565b9250610c1560208501610bcd565b9150604084013567ffffffffffffffff811115610c3157600080fd5b610c3d86828701610b03565b9150509250925092565b60008060408385031215610c5a57600080fd5b82359150610c6a60208401610bcd565b90509250929050565b60005b83811015610c8e578181015183820152602001610c76565b50506000910152565b60008251610ca9818460208701610c73565b9190910192915050565b634e487b7160e01b600052603260045260246000fd5b634e487b7160e01b600052601160045260246000fd5b600060018201610cf157610cf1610cc9565b5060010190565b600181811c90821680610d0c57607f821691505b602082108103610d2c57634e487b7160e01b600052602260045260246000fd5b50919050565b601f82111561024457600081815260208120601f850160051c81016020861015610d595750805b601f850160051c820191505b81811015610d7857828155600101610d65565b505050505050565b815167ffffffffffffffff811115610d9a57610d9a610aed565b610dae81610da88454610cf8565b84610d32565b602080601f831160018114610de35760008415610dcb5750858301515b600019600386901b1c1916600185901b178555610d78565b600085815260208120601f198616915b82811015610e1257888601518255948401946001909101908401610df3565b5085821015610e305787850151600019600388901b60f8161c191681555b5050505050600190811b01905550565b60018060a01b03841681526060602082015260008351806060840152610e6d816080850160208801610c73565b921515604083015250601f91909101601f19160160800192915050565b818103818111156102e1576102e1610cc9565b634e487b7160e01b600052603160045260246000fdfe5830f0e95c01712d916c34d9e2fa42e9f749b325b67bce7382d70bb99c623500a2646970667358221220477c1c41f616dcdd1fc2a848c334012531cc2192731522b796660420f9d4544764736f6c63430008140033","opcodes":"PUSH1 0x80 PUSH1 0x40 MSTORE CALLVALUE DUP1 ISZERO PUSH2 0x10 JUMPI PUSH1 0x0 DUP1 REVERT JUMPDEST POP PUSH2 0xF09 DUP1 PUSH2 0x20 PUSH1 0x0 CODECOPY PUSH1 0x0 RETURN INVALID PUSH1 0x80 PUSH1 0x40 MSTORE CALLVALUE DUP1 ISZERO PUSH2 0x10 JUMPI PUSH1 0x0 DUP1 REVERT JUMPDEST POP PUSH1 0x4 CALLDATASIZE LT PUSH2 0xA9 JUMPI PUSH1 0x0 CALLDATALOAD PUSH1 0xE0 SHR DUP1 PUSH4 0x6A0AE325 GT PUSH2 0x71 JUMPI DUP1 PUSH4 0x6A0AE325 EQ PUSH2 0x113 JUMPI DUP1 PUSH4 0x833D29B4 EQ PUSH2 0x174 JUMPI DUP1 PUSH4 0x83802165 EQ PUSH2 0x187 JUMPI DUP1 PUSH4 0x8E3A29DC EQ PUSH2 0x19A JUMPI DUP1 PUSH4 0xA06BB129 EQ PUSH2 0x1AD JUMPI DUP1 PUSH4 0xB58A7547 EQ PUSH2 0x1C0 JUMPI PUSH1 0x0 DUP1 REVERT JUMPDEST DUP1 PUSH4 0x1772503B EQ PUSH2 0xAE JUMPI DUP1 PUSH4 0x228CF42F EQ PUSH2 0x113 JUMPI DUP1 PUSH4 0x34B0E6B3 EQ PUSH2 0x129 JUMPI DUP1 PUSH4 0x607BFB24 EQ PUSH2 0x13C JUMPI DUP1 PUSH4 0x652C97AA EQ PUSH2 0x15F JUMPI JUMPDEST PUSH1 0x0 DUP1 REVERT JUMPDEST PUSH2 0xF6 PUSH2 0xBC CALLDATASIZE PUSH1 0x4 PUSH2 0xAD4 JUMP JUMPDEST PUSH1 0x0 SWAP1 DUP2 MSTORE PUSH32 0x5830F0E95C01712D916C34D9E2FA42E9F749B325B67BCE7382D70BB99C623503 PUSH1 0x20 MSTORE PUSH1 0x40 SWAP1 KECCAK256 SLOAD PUSH1 0x1 PUSH1 0x1 PUSH1 0xA0 SHL SUB AND SWAP1 JUMP JUMPDEST PUSH1 0x40 MLOAD PUSH1 0x1 PUSH1 0x1 PUSH1 0xA0 SHL SUB SWAP1 SWAP2 AND DUP2 MSTORE PUSH1 0x20 ADD JUMPDEST PUSH1 0x40 MLOAD DUP1 SWAP2 SUB SWAP1 RETURN JUMPDEST PUSH2 0x11B PUSH1 0x64 DUP2 JUMP JUMPDEST PUSH1 0x40 MLOAD SWAP1 DUP2 MSTORE PUSH1 0x20 ADD PUSH2 0x10A JUMP JUMPDEST PUSH2 0x11B PUSH2 0x137 CALLDATASIZE PUSH1 0x4 PUSH2 0xB90 JUMP JUMPDEST PUSH2 0x1D3 JUMP JUMPDEST PUSH2 0x14F PUSH2 0x14A CALLDATASIZE PUSH1 0x4 PUSH2 0xAD4 JUMP JUMPDEST PUSH2 0x203 JUMP JUMPDEST PUSH1 0x40 MLOAD SWAP1 ISZERO ISZERO DUP2 MSTORE PUSH1 0x20 ADD PUSH2 0x10A JUMP JUMPDEST PUSH2 0x172 PUSH2 0x16D CALLDATASIZE PUSH1 0x4 PUSH2 0xBE9 JUMP JUMPDEST PUSH2 0x239 JUMP JUMPDEST STOP JUMPDEST PUSH2 0x172 PUSH2 0x182 CALLDATASIZE PUSH1 0x4 PUSH2 0xC47 JUMP JUMPDEST PUSH2 0x249 JUMP JUMPDEST PUSH2 0x172 PUSH2 0x195 CALLDATASIZE PUSH1 0x4 PUSH2 0xC47 JUMP JUMPDEST PUSH2 0x282 JUMP JUMPDEST PUSH2 0x14F PUSH2 0x1A8 CALLDATASIZE PUSH1 0x4 PUSH2 0xC47 JUMP JUMPDEST PUSH2 0x2B6 JUMP JUMPDEST PUSH2 0x172 PUSH2 0x1BB CALLDATASIZE PUSH1 0x4 PUSH2 0xC47 JUMP JUMPDEST PUSH2 0x2E7 JUMP JUMPDEST PUSH2 0x14F PUSH2 0x1CE CALLDATASIZE PUSH1 0x4 PUSH2 0xC47 JUMP JUMPDEST PUSH2 0x31B JUMP JUMPDEST PUSH1 0x0 DUP2 PUSH1 0x40 MLOAD PUSH1 0x20 ADD PUSH2 0x1E6 SWAP2 SWAP1 PUSH2 0xC97 JUMP JUMPDEST PUSH1 0x40 MLOAD PUSH1 0x20 DUP2 DUP4 SUB SUB DUP2 MSTORE SWAP1 PUSH1 0x40 MSTORE DUP1 MLOAD SWAP1 PUSH1 0x20 ADD KECCAK256 SWAP1 POP SWAP2 SWAP1 POP JUMP JUMPDEST PUSH1 0x0 SWAP1 DUP2 MSTORE PUSH32 0xB6909058BD527140B8D55A44344C5E42F1F148F1B3B16DF7641882DF8DD72900 PUSH1 0x20 MSTORE PUSH1 0x40 SWAP1 KECCAK256 PUSH1 0x2 ADD SLOAD ISZERO ISZERO SWAP1 JUMP JUMPDEST PUSH2 0x244 DUP4 DUP4 DUP4 PUSH2 0x419 JUMP JUMPDEST POP POP POP JUMP JUMPDEST DUP2 PUSH2 0x254 DUP2 CALLER PUSH2 0x2B6 JUMP JUMPDEST PUSH2 0x278 JUMPI PUSH1 0x40 MLOAD PUSH4 0x63A704CF PUSH1 0xE1 SHL DUP2 MSTORE CALLER PUSH1 0x4 DUP3 ADD MSTORE PUSH1 0x24 ADD JUMPDEST PUSH1 0x40 MLOAD DUP1 SWAP2 SUB SWAP1 REVERT JUMPDEST PUSH2 0x244 DUP4 DUP4 PUSH2 0x592 JUMP JUMPDEST DUP2 PUSH2 0x28D DUP2 CALLER PUSH2 0x2B6 JUMP JUMPDEST PUSH2 0x2AC JUMPI PUSH1 0x40 MLOAD PUSH4 0x63A704CF PUSH1 0xE1 SHL DUP2 MSTORE CALLER PUSH1 0x4 DUP3 ADD MSTORE PUSH1 0x24 ADD PUSH2 0x26F JUMP JUMPDEST PUSH2 0x244 DUP4 DUP4 PUSH2 0x684 JUMP JUMPDEST PUSH1 0x0 DUP3 DUP2 MSTORE PUSH1 0x0 DUP1 MLOAD PUSH1 0x20 PUSH2 0xEB4 DUP4 CODECOPY DUP2 MLOAD SWAP2 MSTORE PUSH1 0x20 MSTORE PUSH1 0x40 SWAP1 KECCAK256 SLOAD PUSH1 0x1 PUSH1 0x1 PUSH1 0xA0 SHL SUB DUP3 DUP2 AND SWAP2 AND EQ JUMPDEST SWAP3 SWAP2 POP POP JUMP JUMPDEST DUP2 PUSH2 0x2F2 DUP2 CALLER PUSH2 0x2B6 JUMP JUMPDEST PUSH2 0x311 JUMPI PUSH1 0x40 MLOAD PUSH4 0x63A704CF PUSH1 0xE1 SHL DUP2 MSTORE CALLER PUSH1 0x4 DUP3 ADD MSTORE PUSH1 0x24 ADD PUSH2 0x26F JUMP JUMPDEST PUSH2 0x244 DUP4 DUP4 PUSH2 0x7B8 JUMP JUMPDEST PUSH1 0x0 DUP3 DUP2 MSTORE PUSH32 0x5830F0E95C01712D916C34D9E2FA42E9F749B325B67BCE7382D70BB99C623502 PUSH1 0x20 SWAP1 DUP2 MSTORE PUSH1 0x40 DUP1 DUP4 KECCAK256 DUP1 SLOAD DUP3 MLOAD DUP2 DUP6 MUL DUP2 ADD DUP6 ADD SWAP1 SWAP4 MSTORE DUP1 DUP4 MSTORE PUSH1 0x0 DUP1 MLOAD PUSH1 0x20 PUSH2 0xEB4 DUP4 CODECOPY DUP2 MLOAD SWAP2 MSTORE SWAP4 DUP6 SWAP4 SWAP3 SWAP2 SWAP1 DUP4 ADD DUP3 DUP3 DUP1 ISZERO PUSH2 0x3AA JUMPI PUSH1 0x20 MUL DUP3 ADD SWAP2 SWAP1 PUSH1 0x0 MSTORE PUSH1 0x20 PUSH1 0x0 KECCAK256 SWAP1 JUMPDEST DUP2 SLOAD PUSH1 0x1 PUSH1 0x1 PUSH1 0xA0 SHL SUB AND DUP2 MSTORE PUSH1 0x1 SWAP1 SWAP2 ADD SWAP1 PUSH1 0x20 ADD DUP1 DUP4 GT PUSH2 0x38C JUMPI JUMPDEST POP POP POP POP POP SWAP1 POP PUSH1 0x0 JUMPDEST DUP2 MLOAD DUP2 LT ISZERO PUSH2 0x40D JUMPI DUP5 PUSH1 0x1 PUSH1 0x1 PUSH1 0xA0 SHL SUB AND DUP3 DUP3 DUP2 MLOAD DUP2 LT PUSH2 0x3D9 JUMPI PUSH2 0x3D9 PUSH2 0xCB3 JUMP JUMPDEST PUSH1 0x20 MUL PUSH1 0x20 ADD ADD MLOAD PUSH1 0x1 PUSH1 0x1 PUSH1 0xA0 SHL SUB AND SUB PUSH2 0x3FB JUMPI PUSH1 0x1 SWAP4 POP POP POP POP PUSH2 0x2E1 JUMP JUMPDEST DUP1 PUSH2 0x405 DUP2 PUSH2 0xCDF JUMP JUMPDEST SWAP2 POP POP PUSH2 0x3B4 JUMP JUMPDEST POP PUSH1 0x0 SWAP6 SWAP5 POP POP POP POP POP JUMP JUMPDEST PUSH1 0x1 PUSH1 0x1 PUSH1 0xA0 SHL SUB DUP4 AND PUSH2 0x44B JUMPI PUSH1 0x40 MLOAD PUSH4 0xEA81B3F PUSH1 0xE2 SHL DUP2 MSTORE PUSH1 0x1 PUSH1 0x1 PUSH1 0xA0 SHL SUB DUP5 AND PUSH1 0x4 DUP3 ADD MSTORE PUSH1 0x24 ADD PUSH2 0x26F JUMP JUMPDEST PUSH1 0x1 PUSH1 0x1 PUSH1 0xA0 SHL SUB DUP3 AND PUSH2 0x47D JUMPI PUSH1 0x40 MLOAD PUSH4 0xEA81B3F PUSH1 0xE2 SHL DUP2 MSTORE PUSH1 0x1 PUSH1 0x1 PUSH1 0xA0 SHL SUB DUP4 AND PUSH1 0x4 DUP3 ADD MSTORE PUSH1 0x24 ADD PUSH2 0x26F JUMP JUMPDEST PUSH32 0xB6909058BD527140B8D55A44344C5E42F1F148F1B3B16DF7641882DF8DD72900 PUSH1 0x0 PUSH2 0x4A9 DUP4 PUSH2 0x1D3 JUMP JUMPDEST SWAP1 POP PUSH2 0x4B4 DUP2 PUSH2 0x203 JUMP JUMPDEST ISZERO PUSH2 0x4D5 JUMPI PUSH1 0x40 MLOAD PUSH4 0x6B4FDEB3 PUSH1 0xE0 SHL DUP2 MSTORE PUSH1 0x4 DUP2 ADD DUP3 SWAP1 MSTORE PUSH1 0x24 ADD PUSH2 0x26F JUMP JUMPDEST PUSH1 0x40 DUP1 MLOAD PUSH1 0x60 DUP2 ADD DUP3 MSTORE DUP3 DUP2 MSTORE PUSH1 0x20 DUP1 DUP3 ADD DUP7 DUP2 MSTORE TIMESTAMP DUP4 DUP6 ADD MSTORE PUSH1 0x0 DUP6 DUP2 MSTORE SWAP2 DUP7 SWAP1 MSTORE SWAP3 SWAP1 KECCAK256 DUP2 MLOAD DUP2 SSTORE SWAP2 MLOAD SWAP1 SWAP2 SWAP1 PUSH1 0x1 DUP3 ADD SWAP1 PUSH2 0x513 SWAP1 DUP3 PUSH2 0xD80 JUMP JUMPDEST POP PUSH1 0x40 SWAP2 SWAP1 SWAP2 ADD MLOAD PUSH1 0x2 SWAP1 SWAP2 ADD SSTORE PUSH1 0x1 DUP1 DUP4 ADD DUP1 SLOAD SWAP2 DUP3 ADD DUP2 SSTORE PUSH1 0x0 SWAP1 DUP2 MSTORE PUSH1 0x20 SWAP1 KECCAK256 ADD DUP2 SWAP1 SSTORE PUSH2 0x544 DUP2 DUP6 PUSH2 0x592 JUMP JUMPDEST PUSH2 0x54E DUP2 DUP7 PUSH2 0x9D8 JUMP JUMPDEST DUP1 PUSH32 0x181C8615E49DC4EAED218E1D225E4A34A0FB364FC70601A191573DAA19D57EDA DUP7 DUP6 PUSH1 0x1 PUSH1 0x40 MLOAD PUSH2 0x583 SWAP4 SWAP3 SWAP2 SWAP1 PUSH2 0xE40 JUMP JUMPDEST PUSH1 0x40 MLOAD DUP1 SWAP2 SUB SWAP1 LOG2 POP POP POP POP POP JUMP JUMPDEST PUSH2 0x59B DUP3 PUSH2 0x203 JUMP JUMPDEST PUSH2 0x5BB JUMPI PUSH1 0x40 MLOAD PUSH4 0x18F58AF PUSH1 0xE3 SHL DUP2 MSTORE PUSH1 0x4 DUP2 ADD DUP4 SWAP1 MSTORE PUSH1 0x24 ADD PUSH2 0x26F JUMP JUMPDEST PUSH1 0x1 PUSH1 0x1 PUSH1 0xA0 SHL SUB DUP2 AND PUSH2 0x5ED JUMPI PUSH1 0x40 MLOAD PUSH4 0xEA81B3F PUSH1 0xE2 SHL DUP2 MSTORE PUSH1 0x1 PUSH1 0x1 PUSH1 0xA0 SHL SUB DUP3 AND PUSH1 0x4 DUP3 ADD MSTORE PUSH1 0x24 ADD PUSH2 0x26F JUMP JUMPDEST PUSH1 0x0 PUSH1 0x0 DUP1 MLOAD PUSH1 0x20 PUSH2 0xEB4 DUP4 CODECOPY DUP2 MLOAD SWAP2 MSTORE PUSH1 0x0 DUP5 DUP2 MSTORE PUSH1 0x20 DUP3 DUP2 MSTORE PUSH1 0x40 SWAP2 DUP3 SWAP1 KECCAK256 SLOAD DUP3 MLOAD PUSH1 0x1 PUSH1 0x1 PUSH1 0xA0 SHL SUB SWAP2 DUP3 AND DUP2 MSTORE SWAP1 DUP7 AND SWAP2 DUP2 ADD SWAP2 SWAP1 SWAP2 MSTORE SWAP2 SWAP3 POP DUP5 SWAP2 PUSH32 0xF731532CB185EC0E4F09F397CCE651BF601970FF3C051D753E42A427448C3D20 SWAP2 ADD PUSH1 0x40 MLOAD DUP1 SWAP2 SUB SWAP1 LOG2 PUSH1 0x0 SWAP3 DUP4 MSTORE PUSH1 0x20 MSTORE PUSH1 0x40 SWAP1 SWAP2 KECCAK256 DUP1 SLOAD PUSH1 0x1 PUSH1 0x1 PUSH1 0xA0 SHL SUB NOT AND PUSH1 0x1 PUSH1 0x1 PUSH1 0xA0 SHL SUB SWAP1 SWAP3 AND SWAP2 SWAP1 SWAP2 OR SWAP1 SSTORE JUMP JUMPDEST PUSH1 0x1 PUSH1 0x1 PUSH1 0xA0 SHL SUB DUP2 AND PUSH2 0x6B6 JUMPI PUSH1 0x40 MLOAD PUSH4 0xEA81B3F PUSH1 0xE2 SHL DUP2 MSTORE PUSH1 0x1 PUSH1 0x1 PUSH1 0xA0 SHL SUB DUP3 AND PUSH1 0x4 DUP3 ADD MSTORE PUSH1 0x24 ADD PUSH2 0x26F JUMP JUMPDEST PUSH2 0x6BF DUP3 PUSH2 0x203 JUMP JUMPDEST PUSH2 0x6DF JUMPI PUSH1 0x40 MLOAD PUSH4 0x18F58AF PUSH1 0xE3 SHL DUP2 MSTORE PUSH1 0x4 DUP2 ADD DUP4 SWAP1 MSTORE PUSH1 0x24 ADD PUSH2 0x26F JUMP JUMPDEST PUSH1 0x0 DUP3 DUP2 MSTORE PUSH32 0x5830F0E95C01712D916C34D9E2FA42E9F749B325B67BCE7382D70BB99C623502 PUSH1 0x20 MSTORE PUSH1 0x40 SWAP1 KECCAK256 SLOAD PUSH1 0x0 DUP1 MLOAD PUSH1 0x20 PUSH2 0xEB4 DUP4 CODECOPY DUP2 MLOAD SWAP2 MSTORE SWAP1 PUSH1 0x64 GT PUSH2 0x740 JUMPI PUSH1 0x40 MLOAD PUSH4 0x3BE3601B PUSH1 0xE0 SHL DUP2 MSTORE PUSH1 0x4 DUP2 ADD DUP5 SWAP1 MSTORE PUSH1 0x24 ADD PUSH2 0x26F JUMP JUMPDEST PUSH1 0x0 DUP4 DUP2 MSTORE PUSH1 0x2 DUP3 ADD PUSH1 0x20 SWAP1 DUP2 MSTORE PUSH1 0x40 DUP1 DUP4 KECCAK256 DUP1 SLOAD PUSH1 0x1 DUP2 ADD DUP3 SSTORE SWAP1 DUP5 MSTORE SWAP3 DUP3 SWAP1 KECCAK256 SWAP1 SWAP3 ADD DUP1 SLOAD PUSH1 0x1 PUSH1 0x1 PUSH1 0xA0 SHL SUB NOT AND PUSH1 0x1 PUSH1 0x1 PUSH1 0xA0 SHL SUB DUP7 AND SWAP1 DUP2 OR SWAP1 SWAP2 SSTORE SWAP2 MLOAD SWAP2 DUP3 MSTORE DUP5 SWAP2 PUSH32 0xFF61D9FEA8A697C08F6CE345A762521D2E5FD7CCE8E235FB4BF9337BA0C57C29 SWAP2 ADD PUSH1 0x40 MLOAD DUP1 SWAP2 SUB SWAP1 LOG2 POP POP POP JUMP JUMPDEST PUSH1 0x1 PUSH1 0x1 PUSH1 0xA0 SHL SUB DUP2 AND PUSH2 0x7EA JUMPI PUSH1 0x40 MLOAD PUSH4 0xEA81B3F PUSH1 0xE2 SHL DUP2 MSTORE PUSH1 0x1 PUSH1 0x1 PUSH1 0xA0 SHL SUB DUP3 AND PUSH1 0x4 DUP3 ADD MSTORE PUSH1 0x24 ADD PUSH2 0x26F JUMP JUMPDEST PUSH2 0x7F3 DUP3 PUSH2 0x203 JUMP JUMPDEST PUSH2 0x813 JUMPI PUSH1 0x40 MLOAD PUSH4 0x18F58AF PUSH1 0xE3 SHL DUP2 MSTORE PUSH1 0x4 DUP2 ADD DUP4 SWAP1 MSTORE PUSH1 0x24 ADD PUSH2 0x26F JUMP JUMPDEST PUSH2 0x81D DUP3 DUP3 PUSH2 0x31B JUMP JUMPDEST PUSH2 0x84C JUMPI PUSH1 0x40 MLOAD PUSH4 0x5F65958F PUSH1 0xE1 SHL DUP2 MSTORE PUSH1 0x4 DUP2 ADD DUP4 SWAP1 MSTORE PUSH1 0x1 PUSH1 0x1 PUSH1 0xA0 SHL SUB DUP3 AND PUSH1 0x24 DUP3 ADD MSTORE PUSH1 0x44 ADD PUSH2 0x26F JUMP JUMPDEST PUSH1 0x0 DUP3 DUP2 MSTORE PUSH32 0x5830F0E95C01712D916C34D9E2FA42E9F749B325B67BCE7382D70BB99C623502 PUSH1 0x20 MSTORE PUSH1 0x40 DUP2 KECCAK256 PUSH1 0x0 DUP1 MLOAD PUSH1 0x20 PUSH2 0xEB4 DUP4 CODECOPY DUP2 MLOAD SWAP2 MSTORE SWAP2 JUMPDEST DUP2 SLOAD DUP2 LT ISZERO PUSH2 0x9D1 JUMPI DUP4 PUSH1 0x1 PUSH1 0x1 PUSH1 0xA0 SHL SUB AND DUP3 DUP3 DUP2 SLOAD DUP2 LT PUSH2 0x8AF JUMPI PUSH2 0x8AF PUSH2 0xCB3 JUMP JUMPDEST PUSH1 0x0 SWAP2 DUP3 MSTORE PUSH1 0x20 SWAP1 SWAP2 KECCAK256 ADD SLOAD PUSH1 0x1 PUSH1 0x1 PUSH1 0xA0 SHL SUB AND SUB PUSH2 0x9BF JUMPI DUP2 SLOAD DUP3 SWAP1 PUSH2 0x8D9 SWAP1 PUSH1 0x1 SWAP1 PUSH2 0xE8A JUMP JUMPDEST DUP2 SLOAD DUP2 LT PUSH2 0x8E9 JUMPI PUSH2 0x8E9 PUSH2 0xCB3 JUMP JUMPDEST SWAP1 PUSH1 0x0 MSTORE PUSH1 0x20 PUSH1 0x0 KECCAK256 ADD PUSH1 0x0 SWAP1 SLOAD SWAP1 PUSH2 0x100 EXP SWAP1 DIV PUSH1 0x1 PUSH1 0x1 PUSH1 0xA0 SHL SUB AND DUP3 DUP3 DUP2 SLOAD DUP2 LT PUSH2 0x919 JUMPI PUSH2 0x919 PUSH2 0xCB3 JUMP JUMPDEST SWAP1 PUSH1 0x0 MSTORE PUSH1 0x20 PUSH1 0x0 KECCAK256 ADD PUSH1 0x0 PUSH2 0x100 EXP DUP2 SLOAD DUP2 PUSH1 0x1 PUSH1 0x1 PUSH1 0xA0 SHL SUB MUL NOT AND SWAP1 DUP4 PUSH1 0x1 PUSH1 0x1 PUSH1 0xA0 SHL SUB AND MUL OR SWAP1 SSTORE POP DUP2 DUP1 SLOAD DUP1 PUSH2 0x957 JUMPI PUSH2 0x957 PUSH2 0xE9D JUMP JUMPDEST PUSH1 0x0 DUP3 DUP2 MSTORE PUSH1 0x20 SWAP1 DUP2 SWAP1 KECCAK256 PUSH1 0x0 NOT SWAP1 DUP4 ADD DUP2 ADD DUP1 SLOAD PUSH1 0x1 PUSH1 0x1 PUSH1 0xA0 SHL SUB NOT AND SWAP1 SSTORE SWAP1 SWAP2 ADD SWAP1 SWAP2 SSTORE PUSH1 0x40 MLOAD PUSH1 0x1 PUSH1 0x1 PUSH1 0xA0 SHL SUB DUP7 AND DUP2 MSTORE DUP7 SWAP2 PUSH32 0x5D49A79E91765AFF88A22B5E1AC2373C3035E839101ACA1496177C0709E53B5A SWAP2 ADD PUSH1 0x40 MLOAD DUP1 SWAP2 SUB SWAP1 LOG2 PUSH2 0x9D1 JUMP JUMPDEST DUP1 PUSH2 0x9C9 DUP2 PUSH2 0xCDF JUMP JUMPDEST SWAP2 POP POP PUSH2 0x88A JUMP JUMPDEST POP POP POP POP POP JUMP JUMPDEST PUSH1 0x1 PUSH1 0x1 PUSH1 0xA0 SHL SUB DUP2 AND PUSH2 0xA0A JUMPI PUSH1 0x40 MLOAD PUSH4 0xEA81B3F PUSH1 0xE2 SHL DUP2 MSTORE PUSH1 0x1 PUSH1 0x1 PUSH1 0xA0 SHL SUB DUP3 AND PUSH1 0x4 DUP3 ADD MSTORE PUSH1 0x24 ADD PUSH2 0x26F JUMP JUMPDEST PUSH2 0xA13 DUP3 PUSH2 0x203 JUMP JUMPDEST PUSH2 0xA33 JUMPI PUSH1 0x40 MLOAD PUSH4 0x18F58AF PUSH1 0xE3 SHL DUP2 MSTORE PUSH1 0x4 DUP2 ADD DUP4 SWAP1 MSTORE PUSH1 0x24 ADD PUSH2 0x26F JUMP JUMPDEST PUSH1 0x0 DUP3 DUP2 MSTORE PUSH32 0x5830F0E95C01712D916C34D9E2FA42E9F749B325B67BCE7382D70BB99C623503 PUSH1 0x20 SWAP1 DUP2 MSTORE PUSH1 0x40 SWAP2 DUP3 SWAP1 KECCAK256 DUP1 SLOAD PUSH1 0x1 PUSH1 0x1 PUSH1 0xA0 SHL SUB DUP6 DUP2 AND PUSH1 0x1 PUSH1 0x1 PUSH1 0xA0 SHL SUB NOT DUP4 AND DUP2 OR SWAP1 SWAP4 SSTORE DUP5 MLOAD SWAP2 AND DUP1 DUP3 MSTORE SWAP3 DUP2 ADD SWAP2 SWAP1 SWAP2 MSTORE DUP3 MLOAD PUSH1 0x0 DUP1 MLOAD PUSH1 0x20 PUSH2 0xEB4 DUP4 CODECOPY DUP2 MLOAD SWAP2 MSTORE SWAP4 DUP7 SWAP3 PUSH32 0x9402E8CEF9F513D1D61B2DF14B6521DFC70CFE4F750D10E413EF6F618B4BE4F6 SWAP3 SWAP1 DUP2 SWAP1 SUB SWAP1 SWAP2 ADD SWAP1 LOG2 POP POP POP POP JUMP JUMPDEST PUSH1 0x0 PUSH1 0x20 DUP3 DUP5 SUB SLT ISZERO PUSH2 0xAE6 JUMPI PUSH1 0x0 DUP1 REVERT JUMPDEST POP CALLDATALOAD SWAP2 SWAP1 POP JUMP JUMPDEST PUSH4 0x4E487B71 PUSH1 0xE0 SHL PUSH1 0x0 MSTORE PUSH1 0x41 PUSH1 0x4 MSTORE PUSH1 0x24 PUSH1 0x0 REVERT JUMPDEST PUSH1 0x0 DUP3 PUSH1 0x1F DUP4 ADD SLT PUSH2 0xB14 JUMPI PUSH1 0x0 DUP1 REVERT JUMPDEST DUP2 CALLDATALOAD PUSH8 0xFFFFFFFFFFFFFFFF DUP1 DUP3 GT ISZERO PUSH2 0xB2F JUMPI PUSH2 0xB2F PUSH2 0xAED JUMP JUMPDEST PUSH1 0x40 MLOAD PUSH1 0x1F DUP4 ADD PUSH1 0x1F NOT SWAP1 DUP2 AND PUSH1 0x3F ADD AND DUP2 ADD SWAP1 DUP3 DUP3 GT DUP2 DUP4 LT OR ISZERO PUSH2 0xB57 JUMPI PUSH2 0xB57 PUSH2 0xAED JUMP JUMPDEST DUP2 PUSH1 0x40 MSTORE DUP4 DUP2 MSTORE DUP7 PUSH1 0x20 DUP6 DUP9 ADD ADD GT ISZERO PUSH2 0xB70 JUMPI PUSH1 0x0 DUP1 REVERT JUMPDEST DUP4 PUSH1 0x20 DUP8 ADD PUSH1 0x20 DUP4 ADD CALLDATACOPY PUSH1 0x0 PUSH1 0x20 DUP6 DUP4 ADD ADD MSTORE DUP1 SWAP5 POP POP POP POP POP SWAP3 SWAP2 POP POP JUMP JUMPDEST PUSH1 0x0 PUSH1 0x20 DUP3 DUP5 SUB SLT ISZERO PUSH2 0xBA2 JUMPI PUSH1 0x0 DUP1 REVERT JUMPDEST DUP2 CALLDATALOAD PUSH8 0xFFFFFFFFFFFFFFFF DUP2 GT ISZERO PUSH2 0xBB9 JUMPI PUSH1 0x0 DUP1 REVERT JUMPDEST PUSH2 0xBC5 DUP5 DUP3 DUP6 ADD PUSH2 0xB03 JUMP JUMPDEST SWAP5 SWAP4 POP POP POP POP JUMP JUMPDEST DUP1 CALLDATALOAD PUSH1 0x1 PUSH1 0x1 PUSH1 0xA0 SHL SUB DUP2 AND DUP2 EQ PUSH2 0xBE4 JUMPI PUSH1 0x0 DUP1 REVERT JUMPDEST SWAP2 SWAP1 POP JUMP JUMPDEST PUSH1 0x0 DUP1 PUSH1 0x0 PUSH1 0x60 DUP5 DUP7 SUB SLT ISZERO PUSH2 0xBFE JUMPI PUSH1 0x0 DUP1 REVERT JUMPDEST PUSH2 0xC07 DUP5 PUSH2 0xBCD JUMP JUMPDEST SWAP3 POP PUSH2 0xC15 PUSH1 0x20 DUP6 ADD PUSH2 0xBCD JUMP JUMPDEST SWAP2 POP PUSH1 0x40 DUP5 ADD CALLDATALOAD PUSH8 0xFFFFFFFFFFFFFFFF DUP2 GT ISZERO PUSH2 0xC31 JUMPI PUSH1 0x0 DUP1 REVERT JUMPDEST PUSH2 0xC3D DUP7 DUP3 DUP8 ADD PUSH2 0xB03 JUMP JUMPDEST SWAP2 POP POP SWAP3 POP SWAP3 POP SWAP3 JUMP JUMPDEST PUSH1 0x0 DUP1 PUSH1 0x40 DUP4 DUP6 SUB SLT ISZERO PUSH2 0xC5A JUMPI PUSH1 0x0 DUP1 REVERT JUMPDEST DUP3 CALLDATALOAD SWAP2 POP PUSH2 0xC6A PUSH1 0x20 DUP5 ADD PUSH2 0xBCD JUMP JUMPDEST SWAP1 POP SWAP3 POP SWAP3 SWAP1 POP JUMP JUMPDEST PUSH1 0x0 JUMPDEST DUP4 DUP2 LT ISZERO PUSH2 0xC8E JUMPI DUP2 DUP2 ADD MLOAD DUP4 DUP3 ADD MSTORE PUSH1 0x20 ADD PUSH2 0xC76 JUMP JUMPDEST POP POP PUSH1 0x0 SWAP2 ADD MSTORE JUMP JUMPDEST PUSH1 0x0 DUP3 MLOAD PUSH2 0xCA9 DUP2 DUP5 PUSH1 0x20 DUP8 ADD PUSH2 0xC73 JUMP JUMPDEST SWAP2 SWAP1 SWAP2 ADD SWAP3 SWAP2 POP POP JUMP JUMPDEST PUSH4 0x4E487B71 PUSH1 0xE0 SHL PUSH1 0x0 MSTORE PUSH1 0x32 PUSH1 0x4 MSTORE PUSH1 0x24 PUSH1 0x0 REVERT JUMPDEST PUSH4 0x4E487B71 PUSH1 0xE0 SHL PUSH1 0x0 MSTORE PUSH1 0x11 PUSH1 0x4 MSTORE PUSH1 0x24 PUSH1 0x0 REVERT JUMPDEST PUSH1 0x0 PUSH1 0x1 DUP3 ADD PUSH2 0xCF1 JUMPI PUSH2 0xCF1 PUSH2 0xCC9 JUMP JUMPDEST POP PUSH1 0x1 ADD SWAP1 JUMP JUMPDEST PUSH1 0x1 DUP2 DUP2 SHR SWAP1 DUP3 AND DUP1 PUSH2 0xD0C JUMPI PUSH1 0x7F DUP3 AND SWAP2 POP JUMPDEST PUSH1 0x20 DUP3 LT DUP2 SUB PUSH2 0xD2C JUMPI PUSH4 0x4E487B71 PUSH1 0xE0 SHL PUSH1 0x0 MSTORE PUSH1 0x22 PUSH1 0x4 MSTORE PUSH1 0x24 PUSH1 0x0 REVERT JUMPDEST POP SWAP2 SWAP1 POP JUMP JUMPDEST PUSH1 0x1F DUP3 GT ISZERO PUSH2 0x244 JUMPI PUSH1 0x0 DUP2 DUP2 MSTORE PUSH1 0x20 DUP2 KECCAK256 PUSH1 0x1F DUP6 ADD PUSH1 0x5 SHR DUP2 ADD PUSH1 0x20 DUP7 LT ISZERO PUSH2 0xD59 JUMPI POP DUP1 JUMPDEST PUSH1 0x1F DUP6 ADD PUSH1 0x5 SHR DUP3 ADD SWAP2 POP JUMPDEST DUP2 DUP2 LT ISZERO PUSH2 0xD78 JUMPI DUP3 DUP2 SSTORE PUSH1 0x1 ADD PUSH2 0xD65 JUMP JUMPDEST POP POP POP POP POP POP JUMP JUMPDEST DUP2 MLOAD PUSH8 0xFFFFFFFFFFFFFFFF DUP2 GT ISZERO PUSH2 0xD9A JUMPI PUSH2 0xD9A PUSH2 0xAED JUMP JUMPDEST PUSH2 0xDAE DUP2 PUSH2 0xDA8 DUP5 SLOAD PUSH2 0xCF8 JUMP JUMPDEST DUP5 PUSH2 0xD32 JUMP JUMPDEST PUSH1 0x20 DUP1 PUSH1 0x1F DUP4 GT PUSH1 0x1 DUP2 EQ PUSH2 0xDE3 JUMPI PUSH1 0x0 DUP5 ISZERO PUSH2 0xDCB JUMPI POP DUP6 DUP4 ADD MLOAD JUMPDEST PUSH1 0x0 NOT PUSH1 0x3 DUP7 SWAP1 SHL SHR NOT AND PUSH1 0x1 DUP6 SWAP1 SHL OR DUP6 SSTORE PUSH2 0xD78 JUMP JUMPDEST PUSH1 0x0 DUP6 DUP2 MSTORE PUSH1 0x20 DUP2 KECCAK256 PUSH1 0x1F NOT DUP7 AND SWAP2 JUMPDEST DUP3 DUP2 LT ISZERO PUSH2 0xE12 JUMPI DUP9 DUP7 ADD MLOAD DUP3 SSTORE SWAP5 DUP5 ADD SWAP5 PUSH1 0x1 SWAP1 SWAP2 ADD SWAP1 DUP5 ADD PUSH2 0xDF3 JUMP JUMPDEST POP DUP6 DUP3 LT ISZERO PUSH2 0xE30 JUMPI DUP8 DUP6 ADD MLOAD PUSH1 0x0 NOT PUSH1 0x3 DUP9 SWAP1 SHL PUSH1 0xF8 AND SHR NOT AND DUP2 SSTORE JUMPDEST POP POP POP POP POP PUSH1 0x1 SWAP1 DUP2 SHL ADD SWAP1 SSTORE POP JUMP JUMPDEST PUSH1 0x1 DUP1 PUSH1 0xA0 SHL SUB DUP5 AND DUP2 MSTORE PUSH1 0x60 PUSH1 0x20 DUP3 ADD MSTORE PUSH1 0x0 DUP4 MLOAD DUP1 PUSH1 0x60 DUP5 ADD MSTORE PUSH2 0xE6D DUP2 PUSH1 0x80 DUP6 ADD PUSH1 0x20 DUP9 ADD PUSH2 0xC73 JUMP JUMPDEST SWAP3 ISZERO ISZERO PUSH1 0x40 DUP4 ADD MSTORE POP PUSH1 0x1F SWAP2 SWAP1 SWAP2 ADD PUSH1 0x1F NOT AND ADD PUSH1 0x80 ADD SWAP3 SWAP2 POP POP JUMP JUMPDEST DUP2 DUP2 SUB DUP2 DUP2 GT ISZERO PUSH2 0x2E1 JUMPI PUSH2 0x2E1 PUSH2 0xCC9 JUMP JUMPDEST PUSH4 0x4E487B71 PUSH1 0xE0 SHL PUSH1 0x0 MSTORE PUSH1 0x31 PUSH1 0x4 MSTORE PUSH1 0x24 PUSH1 0x0 REVERT INVALID PC ADDRESS CREATE 0xE9 0x5C ADD PUSH18 0x2D916C34D9E2FA42E9F749B325B67BCE7382 0xD7 SIGNEXTEND 0xB9 SWAP13 PUSH3 0x3500A2 PUSH5 0x6970667358 0x22 SLT KECCAK256 SELFBALANCE PUSH29 0x1C41F616DCDD1FC2A848C334012531CC2192731522B796660420F9D454 SELFBALANCE PUSH5 0x736F6C6343 STOP ADDMOD EQ STOP CALLER "},"methodIdentifiers":{"MAX_MODERATORS()":"228cf42f","MAX_REWARD_DISTRIBUTORS()":"6a0ae325","addApp(address,address,string)":"652c97aa","addRewardDistributor(bytes32,address)":"83802165","appExists(bytes32)":"607bfb24","hashAppName(string)":"34b0e6b3","isAppAdmin(bytes32,address)":"8e3a29dc","isRewardDistributor(bytes32,address)":"b58a7547","removeRewardDistributor(bytes32,address)":"a06bb129","setAppAdmin(bytes32,address)":"833d29b4","teamWalletAddress(bytes32)":"1772503b"}}}}}